:1000000018308A0000280000FF00030E8301A100C1
:100010000A08A0008A010408A2007708A300780853
:10002000A4007908A5007A08A600831383128C30F7
:100030008400801E1D288C1A2E2822088400230884
:10004000F7002408F8002508F9002608FA0020081F
:100050008A00210E8300FF0E7F0E09008A110A120A
:100060007F280A108A100A11820728340C340134C0
:1000700006340A108A100A1182074B3475347A3418
:100080006534793400340A108A100A118207473423
:1000900075346E346534793400340A108A100A11CC
:1000A000820744346F346734753400340A108A1080
:1000B0000A118207423461347434693400340A10FE
:1000C0008A100A11820759346F346E34203459343F
:1000D0006F346B340034E530840083170008031953
:1000E0007E280230F800F701F70B7428F80B73280C
:1000F0009730F700F70B7A28800B71280800C8307A
:1001000083160317E500831203136B208C1E8628C9
:100110001A0883160317BB00C830E50083120313C7
:100120006B208C128A110A121D28DA30ED30EE2075
:10013000F334ED342100D332EE396F39C830F43066
:10014000F3342100D332EE396F39E4326E00C3321A
:10015000F630701041366937E136E93C6F390000FE
:10016000DA30ED30EE20F334ED342100D332EE39C5
:100170006F39C830F430F3342100D332EE396F399F
:10018000E4326E00C332F630701041366937E13622
:10019000E93C6F3900000A00831603174F08D100AD
:1001A0004E08D0005108FA005008840083137A18D2
:1001B000831780080319E028D00A0319D10AD2282E
:1001C0004E085002F7005108FA004F08031C4F0F69
:1001D000FA027708F800831203130800F701F80108
:1001E00083160317570803105818F707F70CF80C75
:1001F000D818F707F70CF80C5819F707F70CF80C94
:10020000D819F707F70CF80C581AF707F70CF80C81
:10021000D81AF707F70CF80C581BF707F70CF80C6F
:10022000D81BF707F70CF80C83120313080067308C
:10023000840083178403840A8C1E1C291A088000FA
:100240000D300002031D1B298001903084008317AC
:100250008403840A8C1E2A291A0880000D300002AB
:10026000031D292980019530840083178403840AA3
:100270008C1E38291A0880000D300002031D372912
:1002800080019A30840083178403840A8C1E4629D7
:100290001A0880000D300002031D452980019F309F
:1002A000840083178403840A8C1E54291A08800052
:1002B0000D300002031D53298001A43084008317F0
:1002C0008403840A8C1E62291A0880000D30000203
:1002D000031D61298001013083160317CF006730A9
:1002E000CE0083120313CC207808013C0318A72901
:1002F0003030031768028316AB0030308312670278
:100300008316B1003108D7000A30D80083120313D6
:10031000EE20831603172B0878078312EC000313D3
:100320000B08F7008B1303178D016C088C008316E4
:100330008C130C1555308D00AA308D008C148C1840
:100340009F290C117708831203138B04C2293030C4
:1003500003176702EC0003130B08F7008B13031756
:100360008D016C088C0083168C130C1555308D0094
:10037000AA308D008C148C18BB290C1177088312BD
:1003800003138B04013083160317CF009030CE0087
:1003900083120313CC207808023C0318FD29303067
:1003A000831603171202AC0030301102B20032087B
:1003B000D7000A30D80083120313EE2083160317E8
:1003C0002C0878078312ED0003130B08F7008B133A
:1003D000013003178D006D088C0083168C130C15EB
:1003E00055308D00AA308D008C148C18F5290C1115
:1003F0007708831203138B041B2A303083160317EC
:1004000011028312ED0003130B08F7008B13013068
:1004100003178D006D088C0083168C130C15553056
:100420008D00AA308D008C148C18142A0C117708BA
:10043000831203138B043030831603171702AD00A9
:1004400030301602B3003308D7000A30D8008312C8
:100450000313EE20831603172D0878078312EE008E
:1004600003130B08F7008B13023003178D006E087F
:100470008C0083168C130C1555308D00AA308D001E
:100480008C148C18412A0C117708831203138B04E7
:100490003030831603171B028312EF0003130B087F
:1004A000F7008B13033003178D006F088C00831641
:1004B0008C130C1555308D00AA308D008C148C18BF
:1004C0005F2A0C117708831203138B040130831603
:1004D0000317CF009F30CE0083120313CC2078087F
:1004E000023C0318A32A3030831603172102AF0001
:1004F00030302002B4003408D7000A30D80083120C
:100500000313EE20831603172F087807A900831220
:1005100003130B08F7008B13043003178D008316A9
:10052000290883128C0083168C130C1555308D000E
:10053000AA308D008C148C189B2A0C11770883121A
:1005400003138B04C32A3030831603172002A9003B
:10055000831203130B08F7008B13043003178D006D
:100560008316290883128C0083168C130C155530C2
:100570008D00AA308D008C148C18BC2A0C117708C1
:10058000831203138B04013083160317CF00A430AA
:10059000CE0083120313CC207808023C0318002BF2
:1005A0003030831603172602B00030302502B50024
:1005B0003508D7000A30D80083120313EE208316C3
:1005C000031730087807AA00831203130B08F700FB
:1005D0008B13053003178D0083162A0883128C00B5
:1005E00083168C130C1555308D00AA308D008C1499
:1005F0008C18F82A0C117708831203138B04202B14
:100600003030831603172502AA00831203130B0848
:10061000F7008B13053003178D0083162A08831209
:100620008C0083168C130C1555308D00AA308D006C
:100630008C148C18192B0C117708831203138B045C
:100640008A150A168929831603175A182D2B831227
:1006500003138811302B8316031783120313881595
:10066000831688110317DA183B2B83120313081221
:100670003E2B8316031783120313081683160812E2
:1006800003175A19492B8312031388124C2B831614
:100690000317831203138816831688120317DA19B7
:1006A000572B8312031308135A2B83160317831235
:1006B0000313081783160813000083120815831606
:1006C0000811622B632B8312081183160811831201
:1006D000080083160317DB0103138815003083120B
:1006E0008819013083160317DB0403130816003042
:1006F0008312081A0130F7000310F70D77088316EC
:100700000317DB040313881600308312881A0130A4
:10071000F700F70DF70DFC30F70577088316031780
:10072000DB040313081700308312081B0130F700A5
:10073000F70DF70DF70DF830F70577088316031757
:10074000DB045B08F800831203130800831608110A
:1007500008108810831208108316081088150816D0
:1007600088160817831288148316881000008312D5
:100770000815831608110000831269237808831670
:100780000317DA00831203130811831608110000FF
:100790008312081583160811CD2B8312692378085C
:1007A00083160317D9008312031308118316081147
:1007B000881108128812081303175A0EF700F03038
:1007C000F70577085904F8007808D900D91FEA2BF3
:1007D0000313AE2BD708031DF32B8312031308104A
:1007E000F62B8316031783120313081483160810BD
:1007F00000008312881083168810000083120811ED
:10080000831608110317580ED9000F30D90559085F
:10081000DA008312031323238316031758080F39B2
:10082000D900DA00831203132323080083168811EA
:100830000812881208130811081088108312081073
:1008400083160810831288108316881083120811EB
:10085000831608118312A7018B1BA7178B130F3068
:1008600083160317E500831203136B20A71B8B1756
:10087000013083160317CE004E08033C031C562C90
:100880000330DA00831203132323A7018B1BA7175E
:100890008B13053083160317E500831203136B20B7
:1008A000A71B8B1783160317CE0A3C2C0230DA00E5
:1008B000831203132323A7018B1BA7178B13053068
:1008C00083160317E500831203136B20A71B8B17F6
:1008D00083160317CE014E08033C031C802C4E08E0
:1008E00083120313312083160317CF00D7014F085B
:1008F000D80083120313A62383160317CE0A6B2C8A
:10090000031383128A150A16D72983160317540B6B
:100910008A2C8D2C4030D5008E2CD501013053020D
:10092000D50755088038D600D7015608D80083125D
:100930000313A6230800831603175208073A8312ED
:1009400003130319AD2C0B3A0319B62C063A0319FD
:10095000CC2C023A0319D62CDF2C01308316031756
:10096000D300D400831203138524E82C83160317C5
:10097000D7010130D80083120313A623A7018B1BD4
:10098000A7178B13023083160317E5008312031396
:100990006B20A71B8B17E82C013083160317D3009D
:1009A0000230D400831203138524E82C8316031726
:1009B000D7011030D80083120313A623E82C01308E
:1009C00083160317D7005208D80083120313A623F7
:1009D000080083160317D8015808073C031C122D82
:1009E0000310D70C0318FA2C831203138711FD2C64
:1009F00083160317831203138715AA112A08831677
:100A0000870083122A112A0883168700831207158C
:100A10002A112A08831687008312071183160317E9
:100A2000D80AEC2C831203130800AA102A08831694
:100A3000870083128714831603175508D700831283
:100A40000313E924831603175608D70083120313F0
:100A5000E924AA102A088316870083128710080049
:100A6000AA102A0883168700831287148316031797
:100A70005208D70083120313E924AA152A08831603
:100A80008700422D0317D3015308073C031C6D2D2B
:100A900083120313AA152A08831687008312871965
:100AA000532D0310542D031483160317D40C8312F3
:100AB00003132A112A088316870083120715602D55
:100AC000612D2A112A088316870083120711682DC9
:100AD000692D83160317D30A442D83120313AA101A
:100AE0002A08831687008312871083160317540879
:100AF000F800831203130800AA102A08831687003F
:100B000083128710832D842D2A112A0883168700CB
:100B1000831207118E3083160317D500D601831276
:100B200003131525903083160317D500A430D60083
:100B3000831203131525813083160317D200831205
:100B400003133025780883160317CE004E0880392A
:100B50000319B22D8030D500D60183120313152559
:100B600083160317031383128A150A16E7298316BF
:100B700003175808F80157020318C12D5708F7004A
:100B8000CD2DF7010830D900D70DF70D58087702A1
:100B90000318F700F80DD90BC42D831203130800B6
:100BA000831603175408D7000A30D80083120313A2
:100BB000B725780883160317D5005508D7000A30E3
:100BC000D80083120313EE2078088316031754020B
:100BD000D600550EF700F030F70577085604F800F8
:100BE000831203130800831603174E08D4008312E0
:100BF0000313D025780883160317D4008630D50058
:100C00005408D600831203131525831603174F08C3
:100C1000D40083120313D025780883160317D40059
:100C20008830D5005408D600831203131525831687
:100C300003175008D40083120313D02578088316B5
:100C40000317D4008C30D5005408D6008312031348
:100C50001525831603175108D40083120313D025DA
:100C6000780883160317D4008A30D5005408D600BC
:100C7000831203131525831603175208D400831219
:100C80000313D025780883160317D4008430D500C9
:100C90005408D6008312031315258316031753082F
:100CA000D40083120313D025780883160317D400C9
:100CB0008230D5005408D6008312031315258316FD
:100CC0000317D40183120313D02578088316031762
:100CD000D4008030D5005408D600831203131525A4
:100CE0008A150A16022A831603175308D400540ED5
:100CF000F7000F30F7057708D600D7000A30D80084
:100D000083120313EE20780883160317D300540EC2
:100D1000F700F030F7057708F70E0F30F705770882
:100D2000D3075308F800831203130800800803193F
:100D3000B82E83160317CF010408CE004F10831B73
:100D40004F140008D200831203139B248316031749
:100D50004E08840083134F188317840A031DB52E91
:100D600083120313850A8316031783120313962E27
:100D70000800831603173B08613C031D192FB70AAF
:100D8000B90AB8013708053C031C0F2F0430CE0008
:100D900083120313A7018B1BA7178B13FA3083163B
:100DA0000317E500831203136B20A71B8B17831611
:100DB0000317CE0BC82E83120313AA122A08831618
:100DC000870083128716043083160317CE00831220
:100DD0000313A7018B1BA7178B13FA308316031776
:100DE000E500831203136B20A71B8B1783160317D1
:100DF000CE0BE72E83120313AA122A08831687004C
:100E000083128712831603173908013C031C0E2F27
:100E1000031385128312851683160317192F831265
:100E20000313AA122A0883168700831287168316D3
:100E300003173B086B3C031D782FB80ABA0AB701A9
:100E4000B9013808053C031C6E2F0430CE00831214
:100E50000313A7018B1BA7178B13FA3083160317F5
:100E6000E500831203136B20A71B8B178316031750
:100E7000CE0B272F83120313AA122A08831687008A
:100E800083128716043083160317CE0083120313D0
:100E9000A7018B1BA7178B13FA3083160317E500E6
:100EA000831203136B20A71B8B1783160317CE0B1C
:100EB000462F83120313AA122A088316870083126F
:100EC0008712831603173A08013C031C6D2F031386
:100ED00085128312851283160317782F831203134A
:100EE000AA122A0883168700831287128316031713
:100EF000031383128A150A16162A1030F8001F08E9
:100F0000C73978049F001F151F19842F1E08FA0087
:100F100083161E08FD007A08FE007E08003C0318B8
:100F2000F62FFF3A031D982F7D08C13C0318F62FBA
:100F30000C300317D200831203139B240130831655
:100F40000317D300D4008312031385244130840097
:100F5000831796267E08003C0318F52FFF3A031DE1
:100F6000B52F7D08C13C0318F52F1F151F19B62F8B
:100F70001E08FA0083161E08FD007A08FE00831280
:100F80008614023083160317CE0083120313A701C1
:100F90008B1BA7178B13FA3083160317E5008312F8
:100FA00003136B20A71B8B1783160317CE0BC52FBC
:100FB000831203138610023083160317CE008312A8
:100FC0000313A7018B1BA7178B13FA308316031784
:100FD000E500831203136B20A71B8B1783160317DF
:100FE000CE0BDF2F83120313AA2F831683128A15C9
:040FF0000A161B2A98
:10100000853083160317D2008A118312031330250B
:101010008A15780883160317CE00D3008A1183122D
:10102000031373268A1578080317DE0083308316AE
:10103000D2008A118312031330258A15780883168B
:101040000317CE00D3008A118312031373268A1567
:1010500078080317DB0081308316D2008A118312CF
:10106000031330258A15780883160317CE00D300A2
:101070008A118312031373268A1578080317D80080
:1010800087308316D2008A118312031330258A1504
:10109000780883160317CE00D3008A118312031336
:1010A00073268A1578080317E00089308316D2006A
:1010B0008A118312031330258A15780883160317C3
:1010C000CE00D3008A118312031373268A15780881
:1010D0000317E2008D308316D2008A1183120313A6
:1010E00030258A15780883160317CE00D3008A119D
:1010F0008312031373268A1578080317E4008B30D4
:101100008316D2008A118312031330258A157808BA
:1011100083160317CE00D3008A118312031373269C
:101120008A1578080317E6005B08DC005808D90028
:1011300058088316D7000A30D8008A118312031387
:10114000B7258A1577080317DA005A08580283165C
:10115000CF00D7000A30D8008A1183120313B725B5
:101160008A1578080317D8005B088316D7000A3061
:10117000D8008A1183120313B7258A15770803173D
:10118000DD005D085B028316CF00D7000A30D8006F
:101190008A1183120313B7258A1578080317DB0019
:1011A0005E088316D7000A30D8008A118312031311
:1011B000B7258A1577080317DF005F085E028316DC
:1011C000CF00D7000A30D8008A1183120313B72545
:1011D0008A1578080317DE0060088316D7000A30E6
:1011E000D8008A1183120313B7258A1577080317CD
:1011F000E100610860028316CF00D7000A30D800F2
:101200008A1183120313B7258A1578080317E000A3
:1012100062088316D7000A30D8008A11831203139C
:10122000B7258A1577080317E3006308620283165F
:10123000CF00D7000A30D8008A1183120313B725D4
:101240008A1578080317E20064088316D7000A306D
:10125000D8008A1183120313B7258A15770803175C
:10126000E500650864028316CF00D7000A30D80075
:101270008A1183120313B7258A1578080317E4002F
:10128000303058070313E200303003175A070313B6
:10129000E300303003175B070313DF003030031720
:1012A0005D070313E000303003175E070313DC0013
:1012B000303003175F070313DD0030300317640776
:1012C0000313ED003030031765070313EE003030D1
:1012D000031762070313E800303003176307031393
:1012E000E9003030031760070313E50030300317BF
:1012F00061070313E600013003176602F93E031885
:10130000062A073E0313322A50308316A0004130CC
:10131000A1005A30A2004130A3005230A400831231
:101320000317062A031350308316A0004130A10092
:101330005A30A2004130A3005230A4005430A5001E
:101340004530A6005330A7004930A8008312031788
:10135000062A031353308316A0004130A1004C30FD
:10136000A2004930A30083120317062A0313433057
:101370008316A0004130A1005230A2005330A300D8
:101380004130A4004D30A5004230A6004130A700F6
:1013900083120317062A031350308316A00045302A
:1013A000A1005230A2005330A3004530A4004D30BC
:1013B000A5004230A6004530A70083120317062A75
:1013C000031343308316A0005530A1004D30A20016
:1013D0004130A30083120317062A031343308316F8
:1013E000A0005530A1004D30A2004130A300523082
:1013F000A4005430A5004530A6005330A700493062
:10140000A80083120317062A031303170C30831650
:10141000D2008A11831203139B248A15013083168C
:101420000317D300D4008A118312031385248A156D
:10143000E330840083138A1196268A1501308316BF
:101440000317D3000230D4008A11831203138524BA
:101450008A155C30840083138A1196268A158A15B2
:101460000A16122A0A108A140A118207842993295B
:10147000AA29B729CC29E129EE2980080319602A75
:1014800083160317CF010408CE004F10831B4F149F
:101490000008831203130C1E4B2A990083160317AE
:1014A0004E08840083134F188317840A031D5D2A96
:1014B00083120313850A83160317831203133D2A2D
:1014C00008001830F8001F08C73978049F001F155E
:1014D0001F19682A1E08FA0083161E08F5007A08EC
:1014E000F6008312A7018B1BA7178B130A308316F4
:1014F0000317E5008A11831203136B208A15A71BBB
:101500008B177608013C0318D02AFF3A031D8C2A5A
:101510007508ED3C0318D02A7608013C0318CF2A41
:10152000FF3A031D972A7508ED3C0318CF2A1F15B3
:101530001F19982A1E08FA0083161E08F5007A085B
:10154000F60083128614A7018B1BA7178B13FA30A2
:1015500083160317E5008A11831203136B208A1583
:10156000A71B8B178610A7018B1BA7178B13FA30AD
:1015700083160317E5008A11831203136B208A1563
:10158000A71B8B173630840083173D220D300C1EAD
:10159000C72A99000A300C1ECB2A99008C2AD12A1E
:1015A00086108A150A161F2A83160317D001741C89
:1015B000CE014E08073C031C392BCF0183120313C5
:1015C000061AF32A83160317CF0A4F08643C031840
:1015D000EF2A741483120313F32A83160317F02AD5
:1015E000DE2A831203131330F700F70BF52AF82ACB
:1015F000061A0F2B831603174E08073CD100013043
:10160000F7005108F8000319092B0310F70DF80B28
:10161000052B7708FF3AD005332B8312031383166B
:1016200003174E08073CD1000130F7005108F800BD
:1016300003191E2B0310F70DF80B1A2B7708D00493
:1016400083120313061E352B83160317CF0A4F0888
:10165000643C0318312B741483120313352B831647
:101660000317322B202B8312031383160317CE0A82
:10167000D92A5008F8008312031308000B088316B8
:101680000317CE00831203138B13831603178C17D3
:101690000C140000000083120C087F390319952BED
:1016A0008316CF0083120D088316D00083120F0813
:1016B0008316D1004F08D2008A11831203139B2492
:1016C0008A1583160317500883128D00831651085C
:1016D00083128F0083168C170C14000000008312F5
:1016E0000C0D0E0D7F390319952B8316CF00831235
:1016F0000D088316D00083120F088316D1004F08FF
:10170000D2008A11831203139B248A1583160317B0
:10171000500883128D008316510883128F008D0AA2
:1017200003198F0A0313452B03178316CE1F9D2B16
:10173000831203138B1783160317831203130800F6
:1017400074108316061283120612A7018B1BA717AB
:101750008B13193083160317E5008A1183120313C4
:101760006B208A15A71B8B1706161330F700F70B93
:10177000B72BBA2B831606161A30F700F70BBE2BC1
:1017800000008312061AD42B3430F700F70BC62B57
:10179000C92B0000061ED42B2030F700F70BCE2BF0
:1017A000D12B00000130F800F8080319972CD4223F
:1017B00078080317CE000313D42278080317CF004C
:1017C0000313D42278088316EE008312D4227808FB
:1017D0008316EF008312D42278080317D000741CFC
:1017E0000D2C0C308316D2008A11831203139B2414
:1017F0008A15053083160317D3000130D4008A11EF
:101800008312031385248A15953003178D00003049
:101810008F0003133E23942C03174F084E078316A3
:1018200003136E076F07831203175002031D7B2CEF
:10183000831603136E080317D7000A30D8008A11E5
:1018400083120313B7258A15303078078316B60044
:101850006E080317D7000A30D8008A1183120313C9
:10186000B7258A15303077078316B7006F0803173E
:10187000D7000A30D8008A1183120313B7258A15BE
:10188000303078078316B900831203174E08831689
:10189000D7000A30D8008A1183120313B7258A159E
:1018A000303078078316C600831203174E0883165C
:1018B000D7000A30D8008A1183120313B7258A157E
:1018C000303077078316C700831203174F0883163B
:1018D000D7000A30D8008A1183120313B7258A155E
:1018E000303078078316C900DF30BA006E088312E3
:1018F0000317D600952C0C308316D2008A11831260
:1019000003139B248A15013083160317D300D400D8
:101910008A118312031385248A159B3003178D00C7
:1019200000308F0003133E230317C52C03130C3024
:1019300083160317D2008A11831203139B248A157E
:10194000033083160317D3000130D4008A118312A9
:10195000031385248A15A23003178D0000308F00F1
:1019600003133E23013083160317D3000230D40043
:101970008A118312031385248A15A73003178D005B
:1019800000308F0003133E23031703138A150A1632
:10199000222A83160317D001F41CCE014E08073CFF
:1019A000031C2E2DCF0183120313861AE82C8316F5
:1019B0000317CF0A4F08643C0318E42CF414831275
:1019C0000313E82C83160317E52CD32C831203137F
:1019D0001330F700F70BEA2CED2C861A042D831632
:1019E00003174E08073CD1000130F7005108F800FA
:1019F0000319FE2C0310F70DF80BFA2C7708FF3AA9
:101A0000D005282D83120313831603174E08073CB5
:101A1000D1000130F7005108F8000319132D03100D
:101A2000F70DF80B0F2D7708D00483120313861ED1
:101A30002A2D83160317CF0A4F08643C0318262D5E
:101A4000F414831203132A2D83160317272D152D43
:101A50008312031383160317CE0ACE2C5008F80006
:101A6000831203130800F410831686128312861261
:101A7000A7018B1BA7178B13193083160317E500DB
:101A80008A11831203136B208A15A71B8B178616E6
:101A90001330F700F70B4A2D4D2D831686161A309A
:101AA000F700F70B512D00008312861A672D343092
:101AB000F700F70B592D5C2D0000861E672D203096
:101AC000F700F70B612D642D00000130F800F808D5
:101AD0000319262EC92478080317D3000313C92439
:101AE00078080317D4000313C92478080317D1001A
:101AF0000313C92478080317D2000313C9247808F4
:101B00000317D500F41CA02D0C308316D2008A11C7
:101B1000831203139B248A15053083160317D30001
:101B20000130D4008A118312031385248A15B03042
:101B300003178D0000308F0003133E23232E03175D
:101B400054085307510752075502031D0A2E510826
:101B50008316D7000A30D8008A1183120313B725E1
:101B60008A15303078078316DA008312031751087C
:101B70008316D7000A30D8008A1183120313B725C1
:101B80008A15303077078316DB008312031752085B
:101B90008316D7000A30D8008A1183120313B725A1
:101BA0008A15303078078316DD0083120317530837
:101BB0008316D7000A30D8008A1183120313B72581
:101BC0008A15303078070317970053088316D7001B
:101BD0000A30D8008A1183120313B7258A153030D2
:101BE00077070317980054088316D7000A30D800E7
:101BF0008A1183120313B7258A153030780703172B
:101C00009A00DF3083160313DE0083120317510896
:101C1000D700242E0C308316D2008A1183120313AE
:101C20009B248A15013083160317D300D4008A1130
:101C30008312031385248A15B63003178D000030F4
:101C40008F0003133E230317542E03130C30831607
:101C50000317D2008A11831203139B248A150330C1
:101C600083160317D3000130D4008A1183120313A3
:101C700085248A15BD3003178D0000308F000313B3
:101C80003E23013083160317D3000230D4008A119B
:101C90008312031385248A15C23003178D00003088
:101CA0008F0003133E23031703138A150A16252AF0
:101CB000F801F901F701FA01831603175308031D10
:101CC000642E520803197E2E1030D4000310D00D5C
:101CD000D10DF70DFA0D53087A02031D712E52082B
:101CE0007702031C7A2E5208F702031CFA035308EA
:101CF000FA020314F80DF90DD40B662E83120313A8
:101D000008008318862EE03084008317F701F8015D
:101D1000F901FA0183160317E001E101E201E30191
:101D20005F085E045D045C040319C62E2030E400E5
:101D30000310D80DD90DDA0DDB0DE00DE10DE20D2C
:101D4000E30D5F086302031DAF2E5E086202031DF0
:101D5000AF2E5D086102031DAF2E5C086002031CFC
:101D6000C02E5C08E0025D08031C5D0FE1025E0806
:101D7000031C5E0FE2025F08031C5F0FE302031403
:101D8000F70DF80DF90DFA0DE40B982E60088000A0
:101D9000840A61088000840A62088000840A63085B
:081DA000800083120313080008
:102000000030F8001F08C73978049F001F151F19FA
:1020100007281E08FA0083161E08FB007A08FC0039
:1020200004300317CE0083120313A7018B1BA717DD
:102030008B13FA3083160317E5000A128312031379
:102040006B200A16A71B8B1783160317CE0B1328BA
:102050007C08023C03185729FF3A031D33287B08EC
:10206000E73C031857297C08D1007B08D000D30136
:102070000A30D2000A128A158312031358260A1650
:102080008A11770883160317CE007A08CF00303004
:102090004E07CA007C08D1007B08D000D301643011
:1020A000D2000A128A158312031358260A168A11BF
:1020B000770883160317CE007A08CF007C08D1007A
:1020C0007B08D000D3010A30D2000A128A1583128D
:1020D000031358260A168A11770883160317CE02AF
:1020E0007A08031C7A0FCF024F08D1004E08D000A7
:1020F000D3010A30D2000A128A158312031358261C
:102100000A168A11790883160317CF007808CE00C3
:1021100030304E07C9007C08D1007B08D000033066
:10212000D300E830D2000A128A158312031358260E
:102130000A168A11770883160317CE007A08CF0093
:102140007C08D1007B08D000D3016430D2000A1291
:102150008A158312031358260A168A1177088316E4
:102160000317CE027A08031C7A0FCF027C08D10035
:102170007B08D000D3010A30D2000A128A158312DC
:10218000031358260A168A11770883160317CE02FE
:102190007A08031C7A0FCF024F08D1004E08D000F6
:1021A000D3016430D2000A128A1583120313582611
:1021B0000A168A11790883160317CF007808CE0013
:1021C00030304E07C8007C08D1007B08D0000330B7
:1021D000D300E830D2000A128A158312031358265E
:1021E0000A168A11770883160317CE007A08CF00E3
:1021F0007C08D1007B08D000D3016430D2000A12E1
:102200008A158312031358260A168A117708831633
:102210000317CE027A08031C7A0FCF027C08D10084
:102220007B08D000D3010A30D2000A128A1583122B
:10223000031358260A168A11770883160317CE024D
:102240007A08031C7A0FCF024F08D1004E08D00045
:10225000D3016430D2000A128A1583120313582660
:102260000A168A117908FA0078087B028316031788
:10227000CE007C08CF007908031C790FCF024F08ED
:10228000D1004E08D0000330D300E830D2000A124B
:102290008A158312031358260A168A1179088316A1
:1022A0000317CF007808CE0030304E07C700FC0877
:1022B000031D5E297B08633C0318182A7C08033C35
:1022C000031C182A031D68297B08E73C031C182AF5
:1022D0007C08D1007B08D000D3010A30D2000A125A
:1022E0008A158312031358260A168A117708831653
:1022F0000317CE007A08CF0030304E07C9007C08A3
:10230000D1007B08D000D3016430D2000A128A15B4
:102310008312031358260A168A11770883160317A7
:10232000CE007A08CF007C08D1007B08D000D30112
:102330000A30D2000A128A158312031358260A168D
:102340008A11770883160317CE027A08031C7A0FC6
:10235000CF024F08D1004E08D000D3010A30D2007E
:102360000A128A158312031358260A168A1179084D
:1023700083160317CF007808CE0030304E07C80010
:102380007C08D1007B08D0000330D300E830D200B5
:102390000A128A158312031358260A168A1177081F
:1023A00083160317CE007A08CF007C08D1007B0883
:1023B000D000D3016430D2000A128A1583120313AD
:1023C00058260A168A11770883160317CE027A0850
:1023D000031C7A0FCF027C08D1007B08D000D30108
:1023E0000A30D2000A128A158312031358260A16DD
:1023F0008A11770883160317CE027A08031C7A0F16
:10240000CF024F08D1004E08D000D3016430D20073
:102410000A128A158312031358260A168A1179089C
:1024200083160317CF007808CE0030304E07C70060
:10243000FC08031D772A7B08633C031C772A7C0871
:10244000D1007B08D000D3010A30D2000A128A15CD
:102450008312031358260A168A1177088316031766
:10246000CE007A08CF0030304E07C8007C08D1007B
:102470007B08D000D3016430D2000A128A1583127F
:10248000031358260A168A11770883160317CE00FD
:102490007A08CF007C08D1007B08D000D3010A3035
:1024A000D2000A128A158312031358260A168A11BB
:1024B000770883160317CE027A08031C7A0FCF021F
:1024C0004F08D1004E08D000D3010A30D2000A12C2
:1024D0008A158312031358260A168A11790883165F
:1024E0000317CF007808CE0030304E07C7008312A4
:1024F0000313061C952A83160317CE01CF01BC30A7
:10250000840083174E0884074F080A1283120313AE
:1025100039200A16800000380319952A83160317FC
:10252000CF0ACE0A7F2A83120313861DB12A83168F
:102530000317CE01CF01BC30840083174E088407F7
:102540004F080A128312031343200A168000003832
:102550000319B12A83160317CF0ACE0A9B2A8312C6
:102560000313061FCD2A83160317CE01CF01BC30FB
:10257000840083174E0884074F080A12831203133E
:102580004D200A16800000380319CD2A8316031740
:10259000CF0ACE0AB72A83120313861FE92A8316AD
:1025A0000317CE01CF01BC30840083174E08840787
:1025B0004F080A128312031356200A1680000038AF
:1025C0000319E92A83160317CF0ACE0AD32A8312E6
:1025D000031306180B2B86190B2B061B0B2B861BC4
:1025E0000B2B83160317CE01CF01BC308400831759
:1025F0004E0884074F080A12831203135F200A163D
:102600008000003803190B2B83160317CF0ACE0A5C
:10261000F52A831203138A150A16282AA7018B1B91
:10262000A7178B13643083160317E5000A12831271
:1026300003136B200A16A71B8B170830F8001F081E
:10264000C73978049F001F151F19242B83161E08F5
:102650008312D4001E08D500D601D701D708031D68
:102660003B2BD608031D3B2BD508031D3B2B5408E1
:10267000633C0318902C8314CE30840083175708D2
:1026800083160317DB008312031356088316031700
:10269000DA0083120313550883160317D900831237
:1026A0000313540883160317D800DF01DE01DD0190
:1026B0006430DC000A128A158312031381260A167D
:1026C0008A1183160317510883120313DB00831644
:1026D0000317500883120313DA00831603174F08F9
:1026E00083120313D900831603174E0883120313B2
:1026F000D8008314CE30840083175708831603173D
:10270000DB0083120313560883160317DA008312C3
:102710000313550883160317D900831203135408B3
:1027200083160317D800DF01DE01DD010A30DC006B
:102730000A128A158312031381260A168A11831638
:1027400003175108D5005008D4004F08D3004E0895
:10275000D2003030520783120313AD008314CE3001
:1027600084008317570883160317DB0083120313B3
:10277000560883160317DA008312031355088316CD
:102780000317D90083120313540883160317D800C4
:10279000DF01DE01DD010A30DC000A128A15831236
:1027A000031381260A168A11831603174E08F700B1
:1027B0004F08F8005008F9005108FA004E0883123B
:1027C0000313580283160317D20083120313590808
:1027D00083160317D3004F08031C4F0FD302831235
:1027E00003135A0883160317D4005008031C500F14
:1027F000D402831203135B0883160317D500510814
:10280000031C510FD502D7010408D6005710831BB3
:10281000571483105508DB005408DA005308D90018
:102820005208D800DF01DE01DD010A30DC000A12A7
:102830008A158312031381260A168A118316031739
:10284000560884008313571883177A08D50079082F
:10285000D4007808D3007708D200303052078312B2
:102860000313AC005808540283160317CE008312DA
:102870000313550883160317CF0083120313590857
:10288000031C590F442C492C83160317CF028312C3
:102890000313560883160317D000831203135A0834
:1028A000031C5A0F542C592C83160317D002831281
:1028B0000313570883160317D100831203135B0811
:1028C000031C5B0F642C692C83160317D10283123F
:1028D00003138310831603175108DB005008DA0036
:1028E0004F08D9004E08D800DF01DE01DD01643059
:1028F000DC000A128A158312031381260A168A1134
:102900007A0883160317D1007908D0007808CF0021
:102910007708CE0030304E0783120313AB004B2DE7
:102920008314CE3084008317570883160317DB0007
:1029300083120313560883160317DA008312031356
:10294000550883160317D9008312031354088316FE
:102950000317D800DF01DE01DD010A30DC000A12B6
:102960008A158312031381260A168A118316031708
:102970005108D5005008D4004F08D3004E08D200AB
:102980003030520783120313AD008314CE3084001D
:102990008317570883160317DB00831203135608A7
:1029A00083160317DA0083120313550883160317DF
:1029B000D90083120313540883160317D800DF01CC
:1029C000DE01DD010A30DC000A128A1583120313CE
:1029D00081260A168A11831603174E08F7004F083E
:1029E000F8005008F9005108FA004E08831203134A
:1029F000540283160317D20083120313550883165B
:102A00000317D3004F08031C4F0FD3028312031385
:102A1000560883160317D4005008031C500FD40225
:102A200083120313570883160317D5005108031C9C
:102A3000510FD502D7010408D6005710831B571435
:102A400083105508DB005408DA005308D9005208F7
:102A5000D800DF01DE01DD010A30DC000A128A1530
:102A60008312031381260A168A1183160317560848
:102A700084008313571883177A08D5007908D40087
:102A80007808D3007708D20030305207831203133E
:102A9000AC002030AB008A150A16382A0317DC0870
:102AA000031DA42ED908031DA42E5C3084008313BB
:102AB0000A128A1503133D220A168A110D300C1EC4
:102AC0005F2D99000A300C1E632D9900653084003B
:102AD00083130A128A153D220A168A110D300C1E24
:102AE0006F2D99000A300C1E732D9900A0308400C0
:102AF00083130A128A153D220A168A110D300C1E04
:102B00007F2D99000A300C1E832D990020308400FF
:102B100083170A128A153D220A168A110D300C1EDF
:102B20008F2D99000A300C1E932D9900AB30840034
:102B300083130A128A153D220A168A110D300C1EC3
:102B40009F2D99000A300C1EA32D9900BF308400E0
:102B500083130A128A153D220A168A110D300C1EA3
:102B6000AF2D99000A300C1EB32D9900253084003A
:102B700083170A128A153D220A168A110D300C1E7F
:102B8000BF2D99000A300C1EC32D9900CF30840050
:102B900083130A128A153D220A168A110D300C1E63
:102BA000CF2D99000A300C1ED32D990010308400CF
:102BB00083170A128A153D220A168A110D300C1E3F
:102BC000DF2D99000A300C1EE32D99002B30840074
:102BD00083130A128A153D220A168A110D300C1E23
:102BE000EF2D99000A300C1EF32D99003A30840025
:102BF00083130A128A153D220A168A110D300C1E03
:102C0000FF2D99000A300C1E032E9900C630840057
:102C100083170A128A153D220A168A110D300C1EDE
:102C20000F2E99000A300C1E132E9900CB3003177B
:102C30008D0000308F0003130B0883160317CE009E
:102C4000831203138B13831603178C170C140000C5
:102C5000000083120C087F390319712E8316CF00F0
:102C600083120D088316D00083120F088316D1003B
:102C70004F08831203130C1E3B2E99008316031773
:102C8000500883128D008316510883128F0083161B
:102C90008C170C140000000083120C0D0E0D7F39F0
:102CA0000319712E8316CF0083120D088316D000EE
:102CB00083120F088316D1004F08831203130C1ED2
:102CC0005F2E990083160317500883128D00831618
:102CD000510883128F008D0A03198F0A0313232EC4
:102CE00003178316CE1F792E831203138B178316B7
:102CF00003170D30831203130C1E7C2E99000A302B
:102D00000C1E802E99004830840083130A128A1505
:102D10003D220A168A110D300C1E8C2E99000A30A5
:102D20000C1E902E9900BC30840083170A128A155D
:102D30003D220A168A110D300C1E9C2E99000A3075
:102D40000C1EA02E9900031703138A150A163B2A9E
:103000000C3083169900A2309800903083129800FB
:10301000FF30AA0083161F149F141F159F1107303D
:103020009C0083131F3083058312A801A90130304F
:10303000AB00AC00AD002030AE004B30AF006130D3
:10304000B0006E30B1006430B2006530B3006C3057
:10305000B4006130B5002F30B6006D30B7003230AB
:10306000B800B9015230BA007530BB007A30BC00EC
:103070006730BD006130BE007230BF002030C0003C
:103080004430C1006530C2006730C3006530C40001
:103090007230C5006930C600C7015230C8007530B3
:1030A000C9007A30CA006730CB006130CC00723082
:1030B000CD002030CE005930CF006F30D0006E30C0
:1030C000D1007530D200D3012030DC00DD003A3071
:1030D000DE002030DF00E0003A30E1002030E20086
:1030E000E300E401E500E6002F30E7002030E800CF
:1030F000E9002F30EA003230EB003030EC002030B5
:10310000ED00EE00EF0153308316AB004930AC0008
:103110004330AD004130AE004B30AF004C30B0001A
:103120004930B1004B30B2002030B3003D30B40024
:103130002030B5003030B600B7002E30B800303047
:10314000B9002030BA004330BB002030BC00BD00C5
:10315000BE014E30BF004530C0004D30C1002030B0
:10316000C200C3003D30C4002030C5003030C6006E
:10317000C7002E30C8003030C9002030CA002530CA
:10318000CB002030CC00CD00CE015330CF004930F1
:10319000D0004330D1004130D2004B30D3004C300E
:1031A000D4004930D5004B30D6002030D7003D3018
:1031B000D8002030D9003030DA00DB002E30DC00BF
:1031C0003030DD002030DE004330DF002030E00012
:1031D000E100E2014E308312031790004530910068
:1031E0004D3092002030930094003D309500203007
:1031F00096003030970098002E30990030309A00B9
:1032000020309B0025309C0020309D009E009F01B7
:103210004730F0005530F1004E30F200F3015330EA
:1032200083160313E3004130E400E5005430E60068
:10323000E701E8004130E9005230EA004930EB0094
:103240004830EC00ED0183120317A0004130A100CB
:103250005630A2004130A300A4015430A5004F30E5
:10326000A6005030A7005230A8004130A9004B30D2
:10327000AA00AB014230AC004930AD004C30AE008A
:103280004730AF004930B0004C30B1004530B2009B
:103290005230B3004930B400B5014730B600413078
:1032A000B7005A30B8002030B9004130BA004C3075
:1032B000BB004130BC005230BD004D30BE00493033
:1032C000BF00C0014430C1004130C2005230C300D1
:1032D0004230C4004530C5002030C6004130C70030
:1032E0004C30C8004130C9005230CA004D30CB00CC
:1032F0004930CC00CD0120308316C600C700C8007D
:10330000C900CA00CB00CC010A128A118312031330
:1033100017290A168A15043083160317CE00831264
:103320000313A7018B1BA7178B13FA308316031700
:10333000E5000A128A11831203136B200A168A15FC
:10334000A71B8B1783160317CE0B8F2903131F148C
:103350009F101F119F151F1383121F179F1783168E
:103360009F1783121F1483168512061486150617DD
:10337000861786108312AA122A08831687008312E2
:10338000AA122A088316870083128712831609124D
:10339000831290010030F8009200003083169200F2
:1033A000F030831297059D050A128A11162C0A1611
:1033B0008A150C3083160317D2000A128A11831261
:1033C00003139B240A168A150A128A117C2D0A16E9
:1033D0008A1503176C088316CE0083126D088316B6
:1033E000CF0083126E088316D00083126F088316F5
:1033F000D1002908D2002A08D3000A128A118312A8
:103400000313F32D0A168A158316061109108C165C
:10341000C03083128B040A128A118C160A168A1580
:103420000A1200280A160A128A11B92E0A168A15DB
:103430000A128A117D2F0A168A150A12612A0A16A3
:103440000A12A02B0A160A12332D0A168A11002816
:103450008A150317D6080319302AD708031D342A02
:1034600003130611362A0317031306158A110E2BB0
:0C3470008A158A114E2D8A150B2A630064
:02400E00393F38
:00000001FF
;PIC16F877A
;CRC=3EF0  CREATED="09-Jan-21 00:35"
