:1000000000308A00C92800004F08F8014E0203188A
:100010000C284E08F7001828F7010830D000CE0D44
:10002000F70D4F0877020318F700F80DD00B0F28D3
:100030000800450884008313461883174E08800083
:10004000840A8001C50A0319C60A08002030491E27
:100050003030CA004808F700C81F3628F709F70AE9
:100060007708C8002D30CA00C91749144808CE00C7
:100070006430CF0004207708C80030307807CB0008
:100080004808CE000A30CF00042030307707CD007A
:1000900030307807CC004A08F70030304B020319A3
:1000A0005528C914C91B491569284A08CB002030B6
:1000B000CA0030304C02031961284914C91BC91405
:1000C0006928031D4914031D69284B08CC00203002
:1000D000CB0049197028C91873284918762879283F
:1000E0004A08CE0019204B08CE0019204C08CE003B
:1000F00019204D08CE0019200800493084008313D0
:100100000008031990280230F800F701F70B862841
:10011000F80B85289730F700F70B8C28800B832885
:10012000080083160810831208100830F800982879
:100130000000F817A928F813CA0C03180814031CA8
:1001400008107817A9287813F80B9C28A728000016
:1001500008143F308400840BAB280000F81B9B2858
:10016000781BA328080080080319C828C9010408BF
:10017000C8004910831B49140008CA009120480890
:100180008400831349188317840A0319850AB32846
:10019000080083160810831208140530BF000130D0
:1001A000C0001530C1000330C2000730C3003B302F
:1001B000C400C601C501FF30C70083161F149F1479
:1001C0001F159F1107309C0083131F308305831276
:1001D000C6012030C5003F08C8001830C9002620DD
:1001E000C6012530C5004008C8001830C9002620C7
:1001F000C6012A30C5004108C8001830C9002620B1
:10020000C6012F30C5004208C8001830C90026209A
:10021000C6013430C5004308C8001830C900262084
:10022000C6013930C5004408C8001830C90026206E
:100230000230C800FA30C9007D20C80B1A292030CE
:1002400084008313B3200D30CA0091200A30CA0005
:1002500091200230C800FA30C9007D20C80B2B293C
:10026000253084008313B3200D30CA0091200A305A
:10027000CA0091200230C800FA30C9007D20C80BA6
:100280003C292A3084008313B3200D30CA0091200A
:100290000A30CA0091200230C800FA30C9007D201F
:1002A000C80B4D292F3084008313B3200D30CA00B2
:1002B00091200A30CA0091200230C800FA30C900EB
:1002C0007D20C80B5E29343084008313B3200D30A9
:1002D000CA0091200A30CA0091200230C800FA30CA
:1002E000C9007D20C80B6F29393084008313B320E7
:1002F0000D30CA0091200A30CA0091200230C80097
:10030000FA30C9007D20C80B802983168716831216
:10031000C7164708831687008312871EA029C716B1
:100320004708831687008312871EA0296130CA0000
:1003300091200230C800FA30C9007D20C80B9B29EB
:10034000C7164708831687008312871AB829C7166D
:100350004708831687008312871AB8296B30CA00B2
:1003600091200230C800FA30C9007D20C80BB329A3
:040370008829630075
:02400E00393F38
:00000001FF
;PIC16F877A
;CRC=BBBA  CREATED="09-Jan-21 00:36"
