:1000000015308A00162D0000FF00030E8301A100A9
:100010000A08A0008A010408A2007708A300780853
:10002000A4007908A5007A08A600831383128C30F7
:100030008400801E1D288C1A2E2822088400230884
:10004000F7002408F8002508F9002608FA0020081F
:100050008A00210E8300FF0E7F0E09008A110A120A
:100060006B280A108A100A11820728340C340134D4
:1000700006340A108A100A1182074B3475347A3418
:100080006534793400340A108A100A118207473423
:1000900075346E346534793400340A108A100A11CC
:1000A000820744346F346734753400340A108A1080
:1000B0000A118207423461347434693400340A10FE
:1000C0008A100A11820759346F346E34203459343F
:1000D0006F346B34003464008C1E6C281A0883164D
:1000E0000317BB00831203138C128A110A121D28F6
:1000F000DA30ED30EE20F334ED342100D332EE3936
:100100006F39C830F430F3342100D332EE396F390F
:10011000E4326E00C332F630701041366937E13692
:10012000E93C6F390000DA30ED30EE20F334ED3485
:100130002100D332EE396F39C830F430F334210066
:10014000D332EE396F39E4326E00C332F6307010BC
:1001500041366937E136E93C6F3900000A00831601
:1001600003174F08D1004E08D0005108FA0050087C
:10017000840083137A18831780080319C328D00AD0
:100180000319D10AB5284E085002F7005108FA00A9
:100190004F08031C4F0FFA027708F800831203136D
:1001A0000800F701F80183160317570803105818C1
:1001B000F707F70CF80CD818F707F70CF80C5819D4
:1001C000F707F70CF80CD819F707F70CF80C581AC2
:1001D000F707F70CF80CD81AF707F70CF80C581BB0
:1001E000F707F70CF80CD81BF707F70CF80C83127D
:1001F0000313080064006730840083178403840AB3
:100200008C1E00291A0880000D300002031DFF28F3
:1002100080019030840083178403840A8C1E0E2989
:100220001A0880000D300002031D0D298001953051
:10023000840083178403840A8C1E1C291A088000FA
:100240000D300002031D1B2980019A3084008317A2
:100250008403840A8C1E2A291A0880000D300002AB
:10026000031D2929800164009F30840083178403C3
:10027000840A8C1E39291A0880000D300002031DE3
:1002800038298001A430840083178403840A8C1EDB
:1002900047291A0880000D300002031D46298001FD
:1002A000013083160317CF006730CE00831203138B
:1002B000AF207808013C03188C29303003176802FE
:1002C0008316AB003030831267028316B100310809
:1002D000D7000A30D80083120313D12083160317E6
:1002E0002B0878078312EC0003130B08F7008B131D
:1002F00003178D016C088C0083168C130C15553078
:100300008D00AA308D008C148C1884290C1177086C
:10031000831203138B04A729303003176702EC0004
:1003200003130B08F7008B1303178D016C088C0067
:1003300083168C130C1555308D00AA308D008C144B
:100340008C18A0290C117708831203138B04013039
:1003500083160317CF009030CE0083120313AF2013
:100360007808023C0318E229303083160317120282
:10037000AC0030301102B2003208D7000A30D80089
:1003800083120313D120831603172C0878078312D6
:10039000ED0003130B08F7008B13013003178D00DA
:1003A0006D088C0083168C130C1555308D00AA3007
:1003B0008D008C148C18DA290C1177088312031322
:1003C0008B04002A30308316031711028312ED00CC
:1003D00003130B08F7008B13013003178D006D0812
:1003E0008C0083168C130C1555308D00AA308D00AF
:1003F0008C148C18F9290C117708831203138B04C1
:100400003030831603171702AD0030301602B300E8
:100410003308D7000A30D80083120313D120831683
:1004200003172D0878078312EE0003130B08F7005B
:100430008B13023003178D006E088C0083168C130B
:100440000C1555308D00AA308D008C148C18262A7E
:100450000C117708831203138B04303083160317B3
:100460001B028312EF0003130B08F7008B130330FA
:1004700003178D006F088C0083168C130C155530F4
:100480008D00AA308D008C148C18442A0C1177082A
:10049000831203138B04013083160317CF009F30A0
:1004A000CE0083120313AF207808023C0318882A79
:1004B0003030831603172102AF0030302002B40021
:1004C0003408D7000A30D80083120313D1208316D2
:1004D00003172F087807A900831203130B08F700EE
:1004E0008B13043003178D008316290883128C00A8
:1004F00083168C130C1555308D00AA308D008C148A
:100500008C18802A0C117708831203138B04A82AF5
:100510003030831603172002A900831203130B083F
:10052000F7008B13043003178D00831629088312FC
:100530008C0083168C130C1555308D00AA308D005D
:100540008C148C18A12A0C117708831203138B04C6
:10055000013083160317CF00A430CE00831203139B
:10056000AF207808023C0318E52A303083160317C1
:100570002602B00030302502B5003508D7000A3019
:10058000D80083120313D12083160317300878078D
:10059000AA00831203130B08F7008B13053003170F
:1005A0008D0083162A0883128C0083168C130C1579
:1005B00055308D00AA308D008C148C18DD2A0C115A
:1005C0007708831203138B04052B3030831603172F
:1005D0002502AA00831203130B08F7008B130530C2
:1005E00003178D0083162A0883128C0083168C1340
:1005F0000C1555308D00AA308D008C148C18FE2AF5
:100600000C117708831203138B048A110A16BB2E70
:10061000D33084008317000803191B2B0230F80025
:10062000F701F70B112BF80B102B9730F700F70B96
:10063000172B800B0E2B0800831603175A18262B36
:10064000831203138811292B8316031783120313B4
:100650008815831688110317DA18342B83120313B5
:100660000812372B831603178312031308168316F9
:10067000081203175A19422B831203138812452BB1
:100680008316031783120313881683168812031721
:10069000DA19502B831203130813532B83160317F5
:1006A000831203130817831608130000831208151A
:1006B000831608115B2B5C2B83120811831608111B
:1006C0008312080083160317DB010313881500301B
:1006D00083128819013083160317DB0403130816ED
:1006E00000308312081A0130F7000310F70D770865
:1006F00083160317DB040313881600308312881A4D
:100700000130F700F70DF70DFC30F7057708831679
:100710000317DB040313081700308312081B013092
:10072000F700F70DF70DF70DF830F705770883168A
:100730000317DB045B08F800831203130800831619
:1007400008110810881083120810831608108815E5
:10075000081688160817831288148316881000005C
:10076000831208158316081100008312622378088B
:1007700083160317DA008312031308118316081176
:1007800000008312081583160811C62B83126223FA
:10079000780883160317D9008312031308118316F0
:1007A0000811881108128812081303175A0EF7004F
:1007B000F030F70577085904F8007808D900D91FF8
:1007C000E32B0313A72BD708031DEC2B8312031372
:1007D0000810EF2B831603178312031308148316D4
:1007E00008100000831288108316881000008312FE
:1007F0000811831608110317580ED9000F30D905B8
:100800005908DA00831203131C23831603175808B0
:100810000F39D900DA00831203131C230800831652
:100820008811081288120813081108108810831202
:1008300008108316081083128810831688108312FC
:100840000811831608110F300317D3008312031306
:100850000823013083160317CE004E08033C031C07
:10086000412C0330DA00831203131C230530831656
:100870000317D30083120313082383160317CE0A2A
:100880002D2C0230DA00831203131C23053083164B
:100890000317D30083120313082383160317CE0113
:1008A0004E08033C031C652C4E08831203133120B1
:1008B00083160317CF00D7014F08D8008312031304
:1008C0009F2383160317CE0A502C031383128A1119
:1008D0000A16012F83160317540B6F2C722C40300D
:1008E000D500732CD50101305302D5075508803847
:1008F000D600D7015608D800831203139F2308009F
:10090000831603175208073A831203130319922C14
:100910000B3A03199B2C063A0319AB2C023A031924
:10092000B52CBE2C013083160317D300D4008312DC
:1009300003136A24C72C83160317D7010130D8008C
:10094000831203139F23023083160317D3008312ED
:1009500003130823C72C013083160317D30002307A
:10096000D400831203136A24C72C83160317D701FC
:100970001030D800831203139F23C72C0130831635
:100980000317D7005208D800831203139F230800CF
:1009900083160317D8015808073C031CF12C0310D9
:1009A000D70C0318D92C831203138711DC2C831660
:1009B0000317831203138715AA112A0883168700C9
:1009C00083122A112A0883168700831207152A1119
:1009D0002A08831687008312071183160317D80A83
:1009E000CB2C831203130800AA102A088316870051
:1009F00083128714831603175508D7008312031335
:100A0000C824831603175608D70083120313C8247B
:100A1000AA102A0883168700831287100800AA10DC
:100A20002A08831687008312871483160317520837
:100A3000D70083120313C824AA152A088316870037
:100A4000212D0317D3015308073C031C4C2D83129F
:100A50000313AA152A088316870083128719322DDB
:100A60000310332D031483160317D40C83120313BE
:100A70002A112A0883168700831207153F2D402D5F
:100A80002A112A088316870083120711472D482D43
:100A900083160317D30A232D83120313AA102A08DF
:100AA0008316870083128710831603175408F800F3
:100AB000831203130800AA102A08831687008312E2
:100AC0008710622D632D2A112A088316870083124E
:100AD00007118E3083160317D500D6018312031336
:100AE000F424903083160317D500A430D600831267
:100AF0000313F424813083160317D20083120313E7
:100B00000F25780883160317CE004E088039031985
:100B1000912D8030D500D60183120313F42483165F
:100B20000317031383128A110A160D2F8316031756
:100B30005808F80157020318A02D5708F700AC2DEC
:100B4000F7010830D900D70DF70D580877020318C0
:100B5000F700F80DD90BA32D831203130800831699
:100B600003175408D7000A30D800831203139625C0
:100B7000780883160317D5005508D7000A30D80027
:100B800083120313D1207808831603175402D6006A
:100B9000550EF700F030F70577085604F800831279
:100BA00003130800831603174E08D400831203139F
:100BB000AF25780883160317D4008630D500540873
:100BC000D60083120313F424831603174F08D400AE
:100BD00083120313AF25780883160317D4008830D7
:100BE000D5005408D60083120313F4248316031788
:100BF0005008D40083120313AF2578088316031717
:100C0000D4008C30D5005408D60083120313F4248A
:100C1000831603175108D40083120313AF257808F5
:100C200083160317D4008A30D5005408D6008312E7
:100C30000313F424831603175208D40083120313FA
:100C4000AF25780883160317D4008430D5005408E4
:100C5000D60083120313F424831603175308D40019
:100C600083120313AF25780883160317D40082304C
:100C7000D5005408D60083120313F42483160317F7
:100C8000D40183120313AF25780883160317D40009
:100C90008030D5005408D60083120313F4248A113F
:100CA0000A16262F061863008A110A162E2F83169D
:100CB00003175308D400540EF7000F30F7057708D8
:100CC000D600D7000A30D80083120313D120780849
:100CD00083160317D300540EF700F030F70577089A
:100CE000F70E0F30F7057708D3075308F800831283
:100CF00003130800800803199C2E83160317CF01E5
:100D00000408CE004F10831B4F140008D20083123A
:100D100003138024831603174E08840083134F188F
:100D20008317840A031D992E83120313850A8316E1
:100D30000317831203137A2E080064008316031727
:100D40003B08613C031DEA2EB70AB90AB80137080F
:100D5000053C031CE02E0430CE00FA30D300831291
:100D60000313082383160317CE0BAD2E8312031330
:100D7000AA122A0883168700831287160430831666
:100D80000317CE00FA30D30083120313082383160F
:100D90000317CE0BC22E83120313AA122A0883163E
:100DA000870083128712831603173908013C031C3E
:100DB000DF2E031385128312851683160317EA2E7E
:100DC00083120313AA122A08831687008312871638
:100DD0008316031764003B086B3C031D352FB80ACC
:100DE000BA0AB7013808053C031C2B2F0430CE008B
:100DF000FA30D30083120313082383160317CE0B94
:100E0000F82E83120313AA122A088316870083126E
:100E10008716043083160317CE00FA30D3008312EE
:100E20000313082383160317CE0B0D2F831203130E
:100E3000AA122A08831687008312871283160317C3
:100E40003A08013C031C2A2F0313851283128512D2
:100E500083160317352F83120313AA122A08831649
:100E6000870083128712831603176400031383120B
:100E70008A110A163C2F1030F8001F08C739780471
:100E80009F001F151F19422F1E08FA0083161E0807
:100E9000FD007A08FE007E08003C0318A02FFF3AF0
:100EA000031D562F7D08C13C0318A02F0C300317DB
:100EB000D200831203138024013083160317D3005A
:100EC000D400831203136A244130840083177A26E6
:100ED0007E08003C03189F2FFF3A031D732F7D08E7
:100EE000C13C03189F2F1F151F19742F1E08FA00ED
:100EF00083161E08FD007A08FE0083128614023055
:100F000083160317CE00FA30D3008312031308238D
:100F100083160317CE0B832F831203138610023020
:100F200083160317CE00FA30D3008312031308236D
:100F300083160317CE0B932F83120313682F831688
:100F400083128A110A16402F80080319C72F8316AF
:100F50000317CF010408CE004F10831B4F14000865
:100F6000831203130C1EB22F9900831603174E0829
:100F7000840083134F188317840A031DC42F831220
:100F80000313850A8316031783120313A42F080083
:100F9000F801F901F701FA01831603175308031D3D
:100FA000D42F52080319EE2F1030D4000310D00DA7
:100FB000D10DF70DFA0D53087A02031DE12F5208E7
:100FC0007702031CEA2F5208F702031CFA035308A6
:100FD000FA020314F80DF90DD40BD62F8312031364
:020FE000080007
:101000006400853083160317D2008A1183120313FC
:101010000F258A15780883160317CE00D3008A118E
:101020008312031357268A1578080317DE008330CE
:101030008316D2008A11831203130F258A157808AC
:1010400083160317CE00D3008A1183120313572689
:101050008A1578080317DB0081308316D2008A11C5
:10106000831203130F258A15780883160317CE0001
:10107000D3008A118312031357268A1578080317A1
:10108000D80087308316D2008A11831203130F25EC
:101090008A15780883160317CE00D3008A118312AD
:1010A000031357268A1578080317E0008930831642
:1010B000D2008A11831203130F258A15780883162C
:1010C0000317CE00D3008A118312031357268A1503
:1010D00078080317E2008D308316D2008A1183123C
:1010E00003130F258A15780883160317CE00D30043
:1010F0008A118312031357268A1578080317E40010
:101100008B308316D2008A11831203130F258A15A0
:10111000780883160317CE00D3008A1183120313B5
:1011200057268A1578080317E6005B08DC00580884
:10113000D90058088316D7000A30D8008A118312C4
:10114000031396258A1577080317DA005A08580200
:101150008316CF00D7000A30D8008A1183120313F8
:1011600096258A1578080317D8005B088316D700E0
:101170000A30D8008A118312031396258A1577083E
:101180000317DD005D085B028316CF00D7000A302D
:10119000D8008A118312031396258A15780803173D
:1011A000DB005E088316D7000A30D8008A1183124C
:1011B000031396258A1577080317DF005F085E0280
:1011C0008316CF00D7000A30D8008A118312031388
:1011D00096258A1578080317DE0060088316D70065
:1011E0000A30D8008A118312031396258A157708CE
:1011F0000317E100610860028316CF00D7000A30B0
:10120000D8008A118312031396258A1578080317CC
:10121000E00062088316D7000A30D8008A118312D2
:10122000031396258A1577080317E3006308620203
:101230008316CF00D7000A30D8008A118312031317
:1012400096258A1578080317E20064088316D700EC
:101250000A30D8008A118312031396258A1577085D
:101260000317E500650864028316CF00D7000A3033
:10127000D8008A118312031396258A15780803175C
:10128000E400303058070313E200303003175A07E8
:101290000313E300303003175B070313DF00303024
:1012A00003175D070313E000303003175E070313D5
:1012B000DC00303003175F070313DD003030031705
:1012C00064070313ED003030031765070313EE00C6
:1012D0003030031762070313E80030300317630749
:1012E0000313E9003030031760070313E5003030C3
:1012F000031761070313E600013003176602F93E86
:101300000318072A073E0313332A50308316A00020
:101310004130A1005A30A2004130A3005230A40055
:1013200083120317072A031350308316A00041309D
:10133000A1005A30A2004130A3005230A400543022
:10134000A5004530A6005330A7004930A8008312FD
:101350000317072A031353308316A0004130A1005E
:101360004C30A2004930A30083120317072A03134D
:1013700043308316A0004130A1005230A200533008
:10138000A3004130A4004D30A5004230A6004130FA
:10139000A70083120317072A031350308316A000F7
:1013A0004530A1005230A2005330A3004530A400C4
:1013B0004D30A5004230A6004530A7008312031728
:1013C000072A031343308316A0005530A1004D3087
:1013D000A2004130A30083120317072A03134330EE
:1013E0008316A0005530A1004D30A2004130A3006B
:1013F0005230A4005430A5004530A6005330A70059
:101400004930A80083120317072A031303170C306F
:101410008316D2008A118312031380248A150130A7
:1014200083160317D300D4008A11831203136A248E
:101430008A15E330840083138A117A268A150130D5
:1014400083160317D3000230D4008A1183120313CA
:101450006A248A155C30840083138A117A268A15DF
:101460008A110A16372F0A108A140A118207852951
:101470009429AB29B829CD29E229EF291830F800A1
:101480001F08C73978049F001F151F19452A1E0819
:10149000FA0083161E08F5007A08F6000A300317D2
:1014A000D3008A118312031308238A157608013C9E
:1014B0000318A92AFF3A031D612A7508ED3C031899
:1014C000A92A7608013C0318A82AFF3A031D6C2AB2
:1014D0007508ED3C0318A82A1F151F196D2A1E0850
:1014E000FA0083161E08F5007A08F60083128614A7
:1014F000FA3083160317D3008A11831203130823CB
:101500008A158610FA3083160317D3008A118312C6
:10151000031308238A155C30840083138A11A427DF
:101520008A150D300C1E922A99000A300C1E962A3C
:1015300099003630840083178A11A4278A150D304C
:101540000C1EA02A99000A300C1EA42A9900612AB8
:10155000AA2A86108A110A16452F83160317D0016E
:10156000741CCE014E08073C031C122BCF018312C2
:101570000313061ACC2A83160317CF0A4F08643CBC
:101580000318C82A741483120313CC2A8316031772
:10159000C92AB72A831203131330F700F70BCE2A98
:1015A000D12A061AE82A831603174E08073CD100F1
:1015B0000130F7005108F8000319E22A0310F70D73
:1015C000F80BDE2A7708FF3AD0050C2B83120313A1
:1015D000831603174E08073CD1000130F70051086D
:1015E000F8000319F72A0310F70DF80BF32A770810
:1015F000D00483120313061E0E2B83160317CF0A83
:101600004F08643C03180A2B7414831203130E2B27
:10161000831603170B2BF92A831203138316031760
:10162000CE0AB22A5008F8008312031308000B08F0
:1016300083160317CE00831203138B13831603172D
:101640008C170C140000000083120C087F3903195A
:101650006E2B8316CF0083120D088316D0008312E1
:101660000F088316D1004F08D2008A11831203138A
:1016700080248A1583160317500883128D00831661
:10168000510883128F0083168C170C140000000081
:1016900083120C0D0E0D7F3903196E2B8316CF00AC
:1016A00083120D088316D00083120F088316D10011
:1016B0004F08D2008A118312031380248A158316DF
:1016C0000317500883128D008316510883128F0070
:1016D0008D0A03198F0A03131E2B03178316CE1FBF
:1016E000762B831203138B178316031783120313AE
:1016F000080074108316061283120612193083161E
:101700000317D3008A118312031308238A150616C0
:101710001330F700F70B8A2B8D2B831606161A3021
:10172000F700F70B912B00008312061AA72B343019
:10173000F700F70B992B9C2B0000061EA72B2030DF
:10174000F700F70BA12BA42B00000130F800F808DC
:1017500003196A2CAD2278080317CE000313AD22BB
:1017600078080317CF000313AD2278088316EE0024
:101770008312AD2278088316EF008312AD22780819
:101780000317D000741CE02B0C308316D2008A1192
:101790008312031380248A15053083160317D300A0
:1017A0000130D4008A11831203136A248A15783019
:1017B00003178D0000308F0003131723672C0317C6
:1017C0004F084E07831603136E076F078312031724
:1017D0005002031D4E2C831603136E080317D70007
:1017E0000A30D8008A118312031396258A153030E7
:1017F00078078316B6006E080317D7000A30D800A2
:101800008A118312031396258A15303077078316C1
:10181000B7006F080317D7000A30D8008A11831267
:10182000031396258A15303078078316B900831282
:1018300003174E088316D7000A30D8008A11831286
:10184000031396258A15303078078316C600831255
:1018500003174E088316D7000A30D8008A11831266
:10186000031396258A15303077078316C700831235
:1018700003174F088316D7000A30D8008A11831245
:10188000031396258A15303078078316C900DF3098
:10189000BA006E0883120317D600682C0C3083162A
:1018A000D2008A118312031380248A150130831613
:1018B0000317D300D4008A11831203136A248A15F4
:1018C0007E3003178D0000308F000313172303179A
:1018D000982C03130C3083160317D2008A1183123D
:1018E000031380248A15033083160317D3000130B5
:1018F000D4008A11831203136A248A1585300317D2
:101900008D0000308F000313172301308316031757
:10191000D3000230D4008A11831203136A248A157B
:101920008A3003178D0000308F000313172303172D
:1019300003138A110A164B2F83160317D001F41CC8
:10194000CE014E08073C031C012DCF018312031367
:10195000861ABB2C83160317CF0A4F08643C031862
:10196000B72CF41483120313BB2C83160317B82C63
:10197000A62C831203131330F700F70BBD2CC02CD9
:10198000861AD72C831603174E08073CD100013066
:10199000F7005108F8000319D12C0310F70DF80BCC
:1019A000CD2C7708FF3AD005FB2C83120313831646
:1019B00003174E08073CD1000130F7005108F8002A
:1019C0000319E62C0310F70DF80BE22C7708D0046E
:1019D00083120313861EFD2C83160317CF0A4F08AC
:1019E000643C0318F92CF41483120313FD2C8316A2
:1019F0000317FA2CE82C8312031383160317CE0A5D
:101A0000A12C5008F800831203130800F410831669
:101A1000861283128612193083160317D3008A1197
:101A20008312031308238A1586161330F700F70B69
:101A3000172D1A2D831686161A30F700F70B1E2D58
:101A400000008312861A342D3430F700F70B262D50
:101A5000292D0000861E342D2030F700F70B2E2D87
:101A6000312D00000130F800F8080319F32D9C24F3
:101A700078080317D30003139C2478080317D400B5
:101A800003139C2478080317D10003139C247808BF
:101A90000317D20003139C2478080317D500F41C05
:101AA0006D2D0C308316D2008A118312031380240B
:101AB0008A15053083160317D3000130D4008A112C
:101AC000831203136A248A15933003178D000030A4
:101AD0008F0003131723F02D0317540853075107E2
:101AE00052075502031DD72D51088316D7000A301F
:101AF000D8008A118312031396258A15303078078F
:101B00008316DA008312031751088316D7000A30B0
:101B1000D8008A118312031396258A15303077076F
:101B20008316DB008312031752088316D7000A308E
:101B3000D8008A118312031396258A15303078074E
:101B40008316DD008312031753088316D7000A306B
:101B5000D8008A118312031396258A15303078072E
:101B60000317970053088316D7000A30D8008A114C
:101B70008312031396258A153030770703179800D0
:101B800054088316D7000A30D8008A118312031331
:101B900096258A153030780703179A00DF308316B0
:101BA0000313DE00831203175108D700F12D0C3008
:101BB0008316D2008A118312031380248A15013000
:101BC00083160317D300D4008A11831203136A24E7
:101BD0008A15993003178D0000308F0003131723E7
:101BE0000317212E03130C3083160317D2008A111A
:101BF0008312031380248A15033083160317D3003E
:101C00000130D4008A11831203136A248A15A0308C
:101C100003178D0000308F00031317230130831644
:101C20000317D3000230D4008A11831203136A24ED
:101C30008A15A53003178D0000308F00031317237A
:101C4000031703138A110A16512F83182A2EE03026
:101C500084008317F701F801F901FA0183160317CD
:101C6000E001E101E201E3015F085E045D045C0460
:101C700003196A2E2030E4000310D80DD90DDA0DB7
:101C8000DB0DE00DE10DE20DE30D5F086302031DC6
:101C9000532E5E086202031D532E5D086102031D70
:101CA000532E5C086002031C642E5C08E0025D0891
:101CB000031C5D0FE1025E08031C5E0FE2025F0879
:101CC000031C5F0FE3020314F70DF80DF90DFA0D75
:101CD000E40B3C2E60088000840A61088000840ABE
:101CE00062088000840A63088000831203130800DE
:101CF00064000317DC08031DB32FD908031DB32F9D
:101D00005C30840083138A110313A4278A150D30D5
:101D10000C1E882E99000A300C1E8C2E99006530FE
:101D2000840083138A11A4278A150D300C1E962E69
:101D300099000A300C1E9A2E9900A030840083135B
:101D40008A11A4278A150D300C1EA42E99000A3082
:101D50000C1EA82E99002030840083178A11A42716
:101D60008A150D300C1EB22E99000A300C1EB62EAC
:101D70009900AB30840083138A11A4278A150D3093
:101D80000C1EC02E99000A300C1EC42E9900BF30C4
:101D9000840083138A11A4278A150D300C1ECE2EC1
:101DA00099000A300C1ED22E99002530840083172A
:101DB0008A11A4278A150D300C1EDC2E99000A30DA
:101DC0000C1EE02E9900CF30840083138A11A427C3
:101DD0008A150D300C1EEA2E99000A300C1EEE2ECC
:101DE00099001030840083178A11A4278A150D30BA
:101DF0000C1EF82E99000A300C1EFC2E99002B3078
:101E0000840083138A11A4278A150D300C1E062F17
:101E100099000A300C1E0A2F99003A30840083136F
:101E20008A11A4278A150D300C1E142F99000A3030
:101E30000C1E182F9900C630840083178A11A4271E
:101E40008A150D300C1E222F99000A300C1E262FE9
:101E50009900AE3003178D0000308F0003130B087C
:101E600083160317CE00831203138B1383160317F5
:101E70008C170C140000000083120C087F39031922
:101E8000842F8316CF0083120D088316D00083128F
:101E90000F088316D1004F08831203130C1E4E2F18
:101EA000990083160317500883128D00831651087A
:101EB00083128F0083168C170C140000000083120D
:101EC0000C0D0E0D7F390319842F8316CF0083125A
:101ED0000D088316D00083120F088316D1004F0817
:101EE000831203130C1E722F9900831603175008D8
:101EF00083128D008316510883128F008D0A0319F7
:101F00008F0A0313362F03178316CE1F8C2F8312CD
:101F100003138B17831603170D30831203130C1E44
:101F20008F2F99000A300C1E932F9900483084009F
:101F300083138A11A4278A150D300C1E9D2F99003A
:101F40000A300C1EA12F9900BC30840083178A111F
:101F5000A4278A150D300C1EAB2F99000A300C1ED9
:0E1F6000AF2F9900031703138A110A16692F79
:102000000030F8001F08C73978049F001F151F19FA
:1020100007281E08FA0083161E08FB007A08FC0039
:1020200004300317CE00FA30D3000A1283120313D0
:1020300008230A1683160317CE0B13287C08023CCC
:1020400003183329FF3A031D29287B08E73C0318AE
:1020500033297C08D1007B08D000D3010A30D2009C
:102060000A1283120313C8270A1677088316031768
:10207000CE007A08CF0030304E07CA007C08D1006D
:102080007B08D000D3016430D2000A1283120313FC
:10209000C8270A16770883160317CE007A08CF00E0
:1020A0007C08D1007B08D000D3010A30D2000A128C
:1020B00083120313C8270A16770883160317CE0264
:1020C0007A08031C7A0FCF024F08D1004E08D000C7
:1020D000D3010A30D2000A1283120313C8270A164A
:1020E000790883160317CF007808CE0030304E07EA
:1020F000C9007C08D1007B08D0000330D300E83051
:10210000D2000A1283120313C8270A16770883160F
:102110000317CE007A08CF007C08D1007B08D000DE
:10212000D3016430D2000A1283120313C8270A169F
:10213000770883160317CE027A08031C7A0FCF02A2
:102140007C08D1007B08D000D3010A30D2000A12EB
:1021500083120313C8270A16770883160317CE02C3
:102160007A08031C7A0FCF024F08D1004E08D00026
:10217000D3016430D2000A1283120313C8270A164F
:10218000790883160317CF007808CE0030304E0749
:10219000C8007C08D1007B08D0000330D300E830B1
:1021A000D2000A1283120313C8270A16770883166F
:1021B0000317CE007A08CF007C08D1007B08D0003E
:1021C000D3016430D2000A1283120313C8270A16FF
:1021D000770883160317CE027A08031C7A0FCF0202
:1021E0007C08D1007B08D000D3010A30D2000A124B
:1021F00083120313C8270A16770883160317CE0223
:102200007A08031C7A0FCF024F08D1004E08D00085
:10221000D3016430D2000A1283120313C8270A16AE
:102220007908FA0078087B0283160317CE007C0831
:10223000CF007908031C790FCF024F08D1004E0858
:10224000D0000330D300E830D2000A128312031307
:10225000C8270A16790883160317CF007808CE001E
:1022600030304E07C700FC08031D3A297B08633C49
:102270000318E4297C08033C031CE429031D4429BA
:102280007B08E73C031CE4297C08D1007B08D000D4
:10229000D3010A30D2000A1283120313C8270A1688
:1022A000770883160317CE007A08CF0030304E0728
:1022B000C9007C08D1007B08D000D3016430D20073
:1022C0000A1283120313C8270A1677088316031706
:1022D000CE007A08CF007C08D1007B08D000D30163
:1022E0000A30D2000A1283120313C8270A1677088D
:1022F00083160317CE027A08031C7A0FCF024F0809
:10230000D1004E08D000D3010A30D2000A12831245
:102310000313C8270A16790883160317CF00780815
:10232000CE0030304E07C8007C08D1007B08D000BA
:102330000330D300E830D2000A1283120313C827F7
:102340000A16770883160317CE007A08CF007C0898
:10235000D1007B08D000D3016430D2000A1283126E
:102360000313C8270A16770883160317CE027A08C4
:10237000031C7A0FCF027C08D1007B08D000D30168
:102380000A30D2000A1283120313C8270A167708EC
:1023900083160317CE027A08031C7A0FCF024F0868
:1023A000D1004E08D000D3016430D2000A1283124B
:1023B0000313C8270A16790883160317CF00780875
:1023C000CE0030304E07C700FC08031D3B2A7B08B7
:1023D000633C031C3B2A7C08D1007B08D000D3015E
:1023E0000A30D2000A1283120313C8270A1677088C
:1023F00083160317CE007A08CF0030304E07C8008E
:102400007C08D1007B08D000D3016430D2000A12CE
:1024100083120313C8270A16770883160317CE0002
:102420007A08CF007C08D1007B08D000D3010A30A5
:10243000D2000A1283120313C8270A1677088316DC
:102440000317CE027A08031C7A0FCF024F08D1007F
:102450004E08D000D3010A30D2000A1283120313AF
:10246000C8270A16790883160317CF007808CE000C
:1024700030304E07C700831203132A162A0883162A
:1024800087008312071E5E2A83160317CE01CF0131
:10249000BC30840083174E0884074F080A12831249
:1024A000031339200A168000003803195E2A8316A8
:1024B0000317CF0ACE0A482A83120313861D7A2AED
:1024C00083160317CE01CF01BC30840083174E085A
:1024D00084074F080A128312031343200A16800050
:1024E000003803197A2A83160317CF0ACE0A642A02
:1024F00083120313061F962A83160317CE01CF01FA
:10250000BC30840083174E0884074F080A128312D8
:1025100003134D200A16800000380319962A8316EB
:102520000317CF0ACE0A802A83120313861FB22A0A
:1025300083160317CE01CF01BC30840083174E08E9
:1025400084074F080A128312031356200A168000CC
:1025500000380319B22A83160317CF0ACE0A9C2A21
:10256000831203132A162A08831687008312071A78
:10257000D92A8619D92A061BD92A861BD92A831655
:102580000317CE01CF01BC30840083174E088407A7
:102590004F080A12831203135F200A1680000038C6
:1025A0000319D92A83160317CF0ACE0AC32A831226
:1025B00003138A110A16552F643083160317D300AC
:1025C0000A128312031308230A160830F8001F08A2
:1025D000C73978049F001F151F19EC2A83161E089F
:1025E0008312D4001E08D500D601D701D708031DD9
:1025F000032BD608031D032BD508031D032B5408FA
:10260000633C0318582C8314CE308400831757087A
:1026100083160317DB008312031356088316031770
:10262000DA0083120313550883160317D9008312A7
:102630000313540883160317D800DF01DE01DD0100
:102640006430DC000A128A158312031325260A1649
:102650008A1183160317510883120313DB008316B4
:102660000317500883120313DA00831603174F0869
:1026700083120313D900831603174E088312031322
:10268000D8008314CE3084008317570883160317AD
:10269000DB0083120313560883160317DA00831234
:1026A0000313550883160317D90083120313540824
:1026B00083160317D800DF01DE01DD010A30DC00DC
:1026C0000A128A158312031325260A168A11831605
:1026D00003175108D5005008D4004F08D3004E0806
:1026E000D2003030520783120313AD008314CE3072
:1026F00084008317570883160317DB008312031324
:10270000560883160317DA0083120313550883163D
:102710000317D90083120313540883160317D80034
:10272000DF01DE01DD010A30DC000A128A158312A6
:10273000031325260A168A11831603174E08F7007D
:102740004F08F8005008F9005108FA004E088312AB
:102750000313580283160317D20083120313590878
:1027600083160317D3004F08031C4F0FD3028312A5
:1027700003135A0883160317D4005008031C500F84
:10278000D402831203135B0883160317D500510884
:10279000031C510FD502D7010408D6005710831B24
:1027A000571483105508DB005408DA005308D90089
:1027B0005208D800DF01DE01DD010A30DC000A1218
:1027C0008A158312031325260A168A118316031706
:1027D000560884008313571883177A08D5007908A0
:1027E000D4007808D3007708D20030305207831223
:1027F0000313AC005808540283160317CE0083124B
:102800000313550883160317CF00831203135908C7
:10281000031C590F0C2C112C83160317CF028312A3
:102820000313560883160317D000831203135A08A4
:10283000031C5A0F1C2C212C83160317D002831261
:102840000313570883160317D100831203135B0881
:10285000031C5B0F2C2C312C83160317D10283121F
:1028600003138310831603175108DB005008DA00A6
:102870004F08D9004E08D800DF01DE01DD016430C9
:10288000DC000A128A158312031325260A168A1100
:102890007A0883160317D1007908D0007808CF0092
:1028A0007708CE0030304E0783120313AB00132D90
:1028B0008314CE3084008317570883160317DB0078
:1028C00083120313560883160317DA0083120313C7
:1028D000550883160317D90083120313540883166F
:1028E0000317D800DF01DE01DD010A30DC000A1227
:1028F0008A158312031325260A168A1183160317D5
:102900005108D5005008D4004F08D3004E08D2001B
:102910003030520783120313AD008314CE3084008D
:102920008317570883160317DB0083120313560817
:1029300083160317DA00831203135508831603174F
:10294000D90083120313540883160317D800DF013C
:10295000DE01DD010A30DC000A128A15831203133E
:1029600025260A168A11831603174E08F7004F080A
:10297000F8005008F9005108FA004E0883120313BA
:10298000540283160317D2008312031355088316CB
:102990000317D3004F08031C4F0FD30283120313F6
:1029A000560883160317D4005008031C500FD40296
:1029B00083120313570883160317D5005108031C0D
:1029C000510FD502D7010408D6005710831B5714A6
:1029D00083105508DB005408DA005308D900520868
:1029E000D800DF01DE01DD010A30DC000A128A15A1
:1029F0008312031325260A168A1183160317560815
:102A000084008313571883177A08D5007908D400F7
:102A10007808D3007708D2003030520783120313AE
:102A2000AC002030AB008A110A16652F0C308316DB
:102A30009900A2309800903083129800FF30AA00CD
:102A400083161F149F141F159F1107309C008313BA
:102A50001F3083058312A801A9013030AB00AC0000
:102A6000AD002030AE004B30AF006130B0006E30B2
:102A7000B1006430B2006530B3006C30B400613036
:102A8000B5002F30B6006D30B7003230B800B90154
:102A90005230BA007530BB007A30BC006730BD00E0
:102AA0006130BE007230BF002030C0004430C10031
:102AB0006530C2006730C3006530C4007230C500A5
:102AC0006930C600C7015230C8007530C9007A307D
:102AD000CA006730CB006130CC007230CD002030AE
:102AE000CE005930CF006F30D0006E30D10075303D
:102AF000D200D3012030DC00DD003A30DE0020308F
:102B0000DF00E0003A30E1002030E200E300E401C1
:102B1000E500E6002F30E7002030E800E9002F3024
:102B2000EA003230EB003030EC002030ED00EE00F7
:102B3000EF0153308316AB004930AC004330AD0099
:102B40004130AE004B30AF004C30B0004930B100E6
:102B50004B30B2002030B3003D30B4002030B5001F
:102B60003030B600B7002E30B8003030B900203019
:102B7000BA004330BB002030BC00BD00BE014E3067
:102B8000BF004530C0004D30C1002030C200C3003E
:102B90003D30C4002030C5003030C600C7002E30A4
:102BA000C8003030C9002030CA002530CB002030AA
:102BB000CC00CD00CE015330CF004930D00043309F
:102BC000D1004130D2004B30D3004C30D4004930DA
:102BD000D5004B30D6002030D7003D30D800203013
:102BE000D9003030DA00DB002E30DC003030DD0080
:102BF0002030DE004330DF002030E000E100E20161
:102C00004E30831203179000453091004D309200F2
:102C10002030930094003D309500203096003030F5
:102C2000970098002E30990030309A0020309B0099
:102C300025309C0020309D009E009F014730F00011
:102C40005530F1004E30F200F30153308316031378
:102C5000E3004130E400E5005430E600E701E8001D
:102C60004130E9005230EA004930EB004830EC00D6
:102C7000ED0183120317A0004130A1005630A200DD
:102C80004130A300A4015430A5004F30A6005030BD
:102C9000A7005230A8004130A9004B30AA00AB0178
:102CA0004230AC004930AD004C30AE004730AF0090
:102CB0004930B0004C30B1004530B2005230B30062
:102CC0004930B400B5014730B6004130B7005A3042
:102CD000B8002030B9004130BA004C30BB00413060
:102CE000BC005230BD004D30BE004930BF00C001B5
:102CF0004430C1004130C2005230C3004230C400F1
:102D00004530C5002030C6004130C7004C30C800F7
:102D10004130C9005230CA004D30CB004930CC00A0
:102D2000CD0120308316C600C700C800C900CA0004
:102D3000CB00CC010F30F7008312031381018130E7
:102D4000840083130008F03907388000640000080D
:102D5000F739F719F0397704800003176C088D00F4
:102D600083168C130C1483120C08EC08031DBD2E63
:102D70000A120313FA280A16031704308316CE002A
:102D8000FA30D3000A128312031308230A1683169B
:102D90000317CE0BC02E03131F149F101F119F1576
:102DA0001F1383121F179F1783169F1783121F1459
:102DB0002A162A0883168700881706148615061710
:102DC0008617851286108312AA122A088316870096
:102DD0008312AA122A088316870083128712831689
:102DE000061109100912831290010030F8009200B8
:102DF000003083169200F030831297059D050A1269
:102E00000F2C0A160C3083160317D2000A128312F5
:102E1000031380240A160A125B2D0A1603176C0886
:102E20008316CE0083126D088316CF0083126E08BE
:102E30008316D00083126F088316D1002908D200B0
:102E40002A08D3000A1283120313D22D0A168316FE
:102E50008C16C03083128B040A12522E0A1664009C
:102E60000A128C160A1664000A128A1500280A161D
:102E70008A1164000A129D2E0A1664000A123B2F62
:102E80000A1664000A128A153E2A0A168A1164007C
:102E90000A128A15792B0A168A1164000A128A15F9
:102EA000062D0A168A116400002864000317D6084C
:102EB00003195D2FD708031D612F03130611632F1C
:102EC0000317031306156400DC2A64000A128A152E
:0A2ED000782E0A168A112C2F6300D9
:02400E003D3F34
:00000001FF
;PIC16F877A
;CRC=F024  CREATED="09-Jan-21 22:44"
